{
  "contractName": "Gambling",
  "abi": [
    {
      "inputs": [
        {
          "internalType": "address",
          "name": "_owner",
          "type": "address"
        },
        {
          "internalType": "uint256",
          "name": "_N",
          "type": "uint256"
        },
        {
          "internalType": "uint256",
          "name": "_minStake",
          "type": "uint256"
        }
      ],
      "stateMutability": "nonpayable",
      "type": "constructor"
    },
    {
      "anonymous": false,
      "inputs": [
        {
          "indexed": false,
          "internalType": "address",
          "name": "",
          "type": "address"
        }
      ],
      "name": "WinnerRevealed",
      "type": "event"
    },
    {
      "inputs": [],
      "name": "N",
      "outputs": [
        {
          "internalType": "uint256",
          "name": "",
          "type": "uint256"
        }
      ],
      "stateMutability": "view",
      "type": "function",
      "constant": true
    },
    {
      "inputs": [],
      "name": "gameStage",
      "outputs": [
        {
          "internalType": "uint8",
          "name": "",
          "type": "uint8"
        }
      ],
      "stateMutability": "view",
      "type": "function",
      "constant": true
    },
    {
      "inputs": [],
      "name": "minStake",
      "outputs": [
        {
          "internalType": "uint256",
          "name": "",
          "type": "uint256"
        }
      ],
      "stateMutability": "view",
      "type": "function",
      "constant": true
    },
    {
      "inputs": [],
      "name": "owner",
      "outputs": [
        {
          "internalType": "address",
          "name": "",
          "type": "address"
        }
      ],
      "stateMutability": "view",
      "type": "function",
      "constant": true
    },
    {
      "inputs": [
        {
          "internalType": "uint256",
          "name": "",
          "type": "uint256"
        }
      ],
      "name": "playerAddress",
      "outputs": [
        {
          "internalType": "address",
          "name": "",
          "type": "address"
        }
      ],
      "stateMutability": "view",
      "type": "function",
      "constant": true
    },
    {
      "inputs": [
        {
          "internalType": "address",
          "name": "",
          "type": "address"
        }
      ],
      "name": "playerReg",
      "outputs": [
        {
          "internalType": "bool",
          "name": "",
          "type": "bool"
        }
      ],
      "stateMutability": "view",
      "type": "function",
      "constant": true
    },
    {
      "inputs": [
        {
          "internalType": "address",
          "name": "",
          "type": "address"
        }
      ],
      "name": "playerStake",
      "outputs": [
        {
          "internalType": "uint256",
          "name": "",
          "type": "uint256"
        }
      ],
      "stateMutability": "view",
      "type": "function",
      "constant": true
    },
    {
      "inputs": [
        {
          "internalType": "bytes32",
          "name": "requestId",
          "type": "bytes32"
        },
        {
          "internalType": "uint256",
          "name": "randomness",
          "type": "uint256"
        }
      ],
      "name": "rawFulfillRandomness",
      "outputs": [],
      "stateMutability": "nonpayable",
      "type": "function"
    },
    {
      "inputs": [],
      "name": "winner",
      "outputs": [
        {
          "internalType": "address",
          "name": "",
          "type": "address"
        }
      ],
      "stateMutability": "view",
      "type": "function",
      "constant": true
    },
    {
      "stateMutability": "payable",
      "type": "receive",
      "payable": true
    },
    {
      "inputs": [],
      "name": "stake",
      "outputs": [],
      "stateMutability": "payable",
      "type": "function",
      "payable": true
    },
    {
      "inputs": [],
      "name": "getBalance",
      "outputs": [
        {
          "internalType": "uint256",
          "name": "",
          "type": "uint256"
        }
      ],
      "stateMutability": "view",
      "type": "function",
      "constant": true
    },
    {
      "inputs": [],
      "name": "getRefund",
      "outputs": [],
      "stateMutability": "nonpayable",
      "type": "function"
    },
    {
      "inputs": [],
      "name": "getWinner",
      "outputs": [
        {
          "internalType": "bytes32",
          "name": "requestId",
          "type": "bytes32"
        }
      ],
      "stateMutability": "nonpayable",
      "type": "function"
    },
    {
      "inputs": [],
      "name": "getOwnerFund",
      "outputs": [],
      "stateMutability": "nonpayable",
      "type": "function"
    }
  ],
  "bytecode": "0x6101006040526000600660006101000a81548160ff021916908360ff1602179055503480156200002e57600080fd5b5060405162001e5338038062001e538339818101604052810190620000549190620001af565b73dd3782915140c8f3b190b5d67eac6dc5760c46e973a36085f69e2889c224210f603d836748e7dc00888173ffffffffffffffffffffffffffffffffffffffff1660a08173ffffffffffffffffffffffffffffffffffffffff1660601b815250508073ffffffffffffffffffffffffffffffffffffffff1660808173ffffffffffffffffffffffffffffffffffffffff1660601b81525050505082600160006101000a81548173ffffffffffffffffffffffffffffffffffffffff021916908373ffffffffffffffffffffffffffffffffffffffff1602179055508160c081815250508060e081815250507f6c3699283bda56ad74f6b855546325b68d482e983852a7a82979cc4807b641f460001b60078190555067016345785d8a000060088190555050505062000277565b600081519050620001928162000243565b92915050565b600081519050620001a9816200025d565b92915050565b600080600060608486031215620001c557600080fd5b6000620001d58682870162000181565b9350506020620001e88682870162000198565b9250506040620001fb8682870162000198565b9150509250925092565b6000620002128262000219565b9050919050565b600073ffffffffffffffffffffffffffffffffffffffff82169050919050565b6000819050919050565b6200024e8162000205565b81146200025a57600080fd5b50565b620002688162000239565b81146200027457600080fd5b50565b60805160601c60a05160601c60c05160e051611b5d620002f66000396000818161039b015281816103bf01528181610abd01528181610b890152610c2b0152600081816104da015281816106f601528181610c980152610e640152600081816109b40152610d3e0152600081816107600152610d020152611b5d6000f3fe6080604052600436106100e15760003560e01c80638e7ea5b21161007f578063a1cfcdbc11610059578063a1cfcdbc14610288578063b2d5ae44146102c5578063c9e525df146102dc578063dfbf53ae14610307576100e8565b80638e7ea5b21461021d57806394970f851461024857806394985ddd1461025f576100e8565b8063375b3c0a116100bb578063375b3c0a146101925780633a4b66f1146101bd57806350c5685b146101c75780638da5cb5b146101f2576100e8565b806304e95d5c146100ed5780630c64592c1461012a57806312065fe014610167576100e8565b366100e857005b600080fd5b3480156100f957600080fd5b50610114600480360381019061010f919061116c565b610332565b6040516101219190611629565b60405180910390f35b34801561013657600080fd5b50610151600480360381019061014c91906111fa565b610352565b60405161015e91906115d0565b60405180910390f35b34801561017357600080fd5b5061017c610391565b604051610189919061180d565b60405180910390f35b34801561019e57600080fd5b506101a7610399565b6040516101b4919061180d565b60405180910390f35b6101c56103bd565b005b3480156101d357600080fd5b506101dc610665565b6040516101e99190611828565b60405180910390f35b3480156101fe57600080fd5b50610207610678565b60405161021491906115d0565b60405180910390f35b34801561022957600080fd5b5061023261069e565b60405161023f9190611644565b60405180910390f35b34801561025457600080fd5b5061025d61085b565b005b34801561026b57600080fd5b50610286600480360381019061028191906111be565b6109b2565b005b34801561029457600080fd5b506102af60048036038101906102aa919061116c565b610a4e565b6040516102bc919061180d565b60405180910390f35b3480156102d157600080fd5b506102da610a66565b005b3480156102e857600080fd5b506102f1610c96565b6040516102fe919061180d565b60405180910390f35b34801561031357600080fd5b5061031c610cba565b60405161032991906115d0565b60405180910390f35b60046020528060005260406000206000915054906101000a900460ff1681565b6003818154811061036257600080fd5b906000526020600020016000915054906101000a900473ffffffffffffffffffffffffffffffffffffffff1681565b600047905090565b7f000000000000000000000000000000000000000000000000000000000000000081565b7f000000000000000000000000000000000000000000000000000000000000000061043734600560006103ee610ce0565b73ffffffffffffffffffffffffffffffffffffffff1673ffffffffffffffffffffffffffffffffffffffff16815260200190815260200160002054610ce890919063ffffffff16565b1015610478576040517f08c379a000000000000000000000000000000000000000000000000000000000815260040161046f9061178d565b60405180910390fd5b6000151560046000610488610ce0565b73ffffffffffffffffffffffffffffffffffffffff1673ffffffffffffffffffffffffffffffffffffffff16815260200190815260200160002060009054906101000a900460ff1615151415610609577f00000000000000000000000000000000000000000000000000000000000000006003805490501061053f576040517f08c379a00000000000000000000000000000000000000000000000000000000081526004016105369061170d565b60405180910390fd5b6003610549610ce0565b9080600181540180825580915050600190039060005260206000200160009091909190916101000a81548173ffffffffffffffffffffffffffffffffffffffff021916908373ffffffffffffffffffffffffffffffffffffffff1602179055506001600460006105b7610ce0565b73ffffffffffffffffffffffffffffffffffffffff1673ffffffffffffffffffffffffffffffffffffffff16815260200190815260200160002060006101000a81548160ff0219169083151502179055505b6106623460056000610619610ce0565b73ffffffffffffffffffffffffffffffffffffffff1673ffffffffffffffffffffffffffffffffffffffff16815260200190815260200160002054610ce890919063ffffffff16565b50565b600660009054906101000a900460ff1681565b600160009054906101000a900473ffffffffffffffffffffffffffffffffffffffff1681565b600080600660009054906101000a900460ff1660ff16146106f4576040517f08c379a00000000000000000000000000000000000000000000000000000000081526004016106eb906117cd565b60405180910390fd5b7f00000000000000000000000000000000000000000000000000000000000000006003805490501461075b576040517f08c379a00000000000000000000000000000000000000000000000000000000081526004016107529061174d565b60405180910390fd5b6008547f000000000000000000000000000000000000000000000000000000000000000073ffffffffffffffffffffffffffffffffffffffff166370a08231306040518263ffffffff1660e01b81526004016107b791906115d0565b60206040518083038186803b1580156107cf57600080fd5b505afa1580156107e3573d6000803e3d6000fd5b505050506040513d601f19601f820116820180604052508101906108079190611223565b1015610848576040517f08c379a000000000000000000000000000000000000000000000000000000000815260040161083f9061172d565b60405180910390fd5b610856600754600854610cfe565b905090565b6001600660009054906101000a900460ff1660ff16146108b0576040517f08c379a00000000000000000000000000000000000000000000000000000000081526004016108a7906117ed565b60405180910390fd5b600160009054906101000a900473ffffffffffffffffffffffffffffffffffffffff1673ffffffffffffffffffffffffffffffffffffffff166108f1610ce0565b73ffffffffffffffffffffffffffffffffffffffff1614610947576040517f08c379a000000000000000000000000000000000000000000000000000000000815260040161093e9061176d565b60405180910390fd5b600160009054906101000a900473ffffffffffffffffffffffffffffffffffffffff1673ffffffffffffffffffffffffffffffffffffffff166108fc479081150290604051600060405180830381858888f193505050501580156109af573d6000803e3d6000fd5b50565b7f000000000000000000000000000000000000000000000000000000000000000073ffffffffffffffffffffffffffffffffffffffff163373ffffffffffffffffffffffffffffffffffffffff1614610a40576040517f08c379a0000000000000000000000000000000000000000000000000000000008152600401610a37906117ad565b60405180910390fd5b610a4a8282610e5d565b5050565b60056020528060005260406000206000915090505481565b6000600660009054906101000a900460ff1660ff1614610abb576040517f08c379a0000000000000000000000000000000000000000000000000000000008152600401610ab2906116cd565b60405180910390fd5b7f000000000000000000000000000000000000000000000000000000000000000060056000610ae8610ce0565b73ffffffffffffffffffffffffffffffffffffffff1673ffffffffffffffffffffffffffffffffffffffff1681526020019081526020016000205411610b63576040517f08c379a0000000000000000000000000000000000000000000000000000000008152600401610b5a906116ed565b60405180910390fd5b610b6b610ce0565b73ffffffffffffffffffffffffffffffffffffffff166108fc610bfd7f000000000000000000000000000000000000000000000000000000000000000060056000610bb4610ce0565b73ffffffffffffffffffffffffffffffffffffffff1673ffffffffffffffffffffffffffffffffffffffff1681526020019081526020016000205461103c90919063ffffffff16565b9081150290604051600060405180830381858888f19350505050158015610c28573d6000803e3d6000fd5b507f000000000000000000000000000000000000000000000000000000000000000060056000610c56610ce0565b73ffffffffffffffffffffffffffffffffffffffff1673ffffffffffffffffffffffffffffffffffffffff16815260200190815260200160002081905550565b7f000000000000000000000000000000000000000000000000000000000000000081565b600260009054906101000a900473ffffffffffffffffffffffffffffffffffffffff1681565b600033905090565b60008183610cf69190611870565b905092915050565b60007f000000000000000000000000000000000000000000000000000000000000000073ffffffffffffffffffffffffffffffffffffffff16634000aea07f000000000000000000000000000000000000000000000000000000000000000084866000604051602001610d7292919061165f565b6040516020818303038152906040526040518463ffffffff1660e01b8152600401610d9f939291906115eb565b602060405180830381600087803b158015610db957600080fd5b505af1158015610dcd573d6000803e3d6000fd5b505050506040513d601f19601f82011682018060405250810190610df19190611195565b506000610e138460003060008089815260200190815260200160002054611052565b9050600160008086815260200190815260200160002054610e349190611870565b60008086815260200190815260200160002081905550610e54848261108e565b91505092915050565b6003610e927f0000000000000000000000000000000000000000000000000000000000000000836110c190919063ffffffff16565b81548110610ec9577f4e487b7100000000000000000000000000000000000000000000000000000000600052603260045260246000fd5b9060005260206000200160009054906101000a900473ffffffffffffffffffffffffffffffffffffffff16600260006101000a81548173ffffffffffffffffffffffffffffffffffffffff021916908373ffffffffffffffffffffffffffffffffffffffff160217905550600260009054906101000a900473ffffffffffffffffffffffffffffffffffffffff1673ffffffffffffffffffffffffffffffffffffffff166108fc610f976064610f896063476110d790919063ffffffff16565b6110ed90919063ffffffff16565b9081150290604051600060405180830381858888f19350505050158015610fc2573d6000803e3d6000fd5b506001600660006101000a81548160ff021916908360ff1602179055507f091d215279323e9cafd34b82ba501761748cbd441904505bc3f4f5f89bb32233600260009054906101000a900473ffffffffffffffffffffffffffffffffffffffff1660405161103091906115d0565b60405180910390a15050565b6000818361104a9190611951565b905092915050565b60008484848460405160200161106b9493929190611688565b6040516020818303038152906040528051906020012060001c9050949350505050565b600082826040516020016110a39291906115a4565b60405160208183030381529060405280519060200120905092915050565b600081836110cf9190611a2b565b905092915050565b600081836110e591906118f7565b905092915050565b600081836110fb91906118c6565b905092915050565b60008135905061111281611acb565b92915050565b60008151905061112781611ae2565b92915050565b60008135905061113c81611af9565b92915050565b60008135905061115181611b10565b92915050565b60008151905061116681611b10565b92915050565b60006020828403121561117e57600080fd5b600061118c84828501611103565b91505092915050565b6000602082840312156111a757600080fd5b60006111b584828501611118565b91505092915050565b600080604083850312156111d157600080fd5b60006111df8582860161112d565b92505060206111f085828601611142565b9150509250929050565b60006020828403121561120c57600080fd5b600061121a84828501611142565b91505092915050565b60006020828403121561123557600080fd5b600061124384828501611157565b91505092915050565b61125581611985565b82525050565b61126481611997565b82525050565b611273816119a3565b82525050565b61128a611285826119a3565b611a17565b82525050565b600061129b82611843565b6112a5818561184e565b93506112b58185602086016119e4565b6112be81611aba565b840191505092915050565b60006112d660168361185f565b91507f47616d652068617320616c726561647920656e646564000000000000000000006000830152602082019050919050565b600061131660148361185f565b91507f526566756e64206e6f7420617661696c61626c650000000000000000000000006000830152602082019050919050565b600061135660178361185f565b91507f4e6f206d6f726520706c617965727320616c6c6f7765640000000000000000006000830152602082019050919050565b6000611396602b8361185f565b91507f4e6f7420656e6f756768204c494e4b202d2066696c6c20636f6e74726163742060008301527f77697468206661756365740000000000000000000000000000000000000000006020830152604082019050919050565b60006113fc60188361185f565b91507f506c6179657273206172652079657420746f207374616b6500000000000000006000830152602082019050919050565b600061143c60128361185f565b91507f4f6e6c79206f776e657220616c6c6f77656400000000000000000000000000006000830152602082019050919050565b600061147c60198361185f565b91507f496e73756666696369656e74207374616b6520616d6f756e74000000000000006000830152602082019050919050565b60006114bc601f8361185f565b91507f4f6e6c7920565246436f6f7264696e61746f722063616e2066756c66696c6c006000830152602082019050919050565b60006114fc60158361185f565b91507f47616d652068617320616c7265616479206f76657200000000000000000000006000830152602082019050919050565b600061153c601b8361185f565b91507f5374616b696e67206973206e6f742066696e69736865642079657400000000006000830152602082019050919050565b611578816119cd565b82525050565b61158f61158a826119cd565b611a21565b82525050565b61159e816119d7565b82525050565b60006115b08285611279565b6020820191506115c0828461157e565b6020820191508190509392505050565b60006020820190506115e5600083018461124c565b92915050565b6000606082019050611600600083018661124c565b61160d602083018561156f565b818103604083015261161f8184611290565b9050949350505050565b600060208201905061163e600083018461125b565b92915050565b6000602082019050611659600083018461126a565b92915050565b6000604082019050611674600083018561126a565b611681602083018461156f565b9392505050565b600060808201905061169d600083018761126a565b6116aa602083018661156f565b6116b7604083018561124c565b6116c4606083018461156f565b95945050505050565b600060208201905081810360008301526116e6816112c9565b9050919050565b6000602082019050818103600083015261170681611309565b9050919050565b6000602082019050818103600083015261172681611349565b9050919050565b6000602082019050818103600083015261174681611389565b9050919050565b60006020820190508181036000830152611766816113ef565b9050919050565b600060208201905081810360008301526117868161142f565b9050919050565b600060208201905081810360008301526117a68161146f565b9050919050565b600060208201905081810360008301526117c6816114af565b9050919050565b600060208201905081810360008301526117e6816114ef565b9050919050565b600060208201905081810360008301526118068161152f565b9050919050565b6000602082019050611822600083018461156f565b92915050565b600060208201905061183d6000830184611595565b92915050565b600081519050919050565b600082825260208201905092915050565b600082825260208201905092915050565b600061187b826119cd565b9150611886836119cd565b9250827fffffffffffffffffffffffffffffffffffffffffffffffffffffffffffffffff038211156118bb576118ba611a5c565b5b828201905092915050565b60006118d1826119cd565b91506118dc836119cd565b9250826118ec576118eb611a8b565b5b828204905092915050565b6000611902826119cd565b915061190d836119cd565b9250817fffffffffffffffffffffffffffffffffffffffffffffffffffffffffffffffff048311821515161561194657611945611a5c565b5b828202905092915050565b600061195c826119cd565b9150611967836119cd565b92508282101561197a57611979611a5c565b5b828203905092915050565b6000611990826119ad565b9050919050565b60008115159050919050565b6000819050919050565b600073ffffffffffffffffffffffffffffffffffffffff82169050919050565b6000819050919050565b600060ff82169050919050565b60005b83811015611a025780820151818401526020810190506119e7565b83811115611a11576000848401525b50505050565b6000819050919050565b6000819050919050565b6000611a36826119cd565b9150611a41836119cd565b925082611a5157611a50611a8b565b5b828206905092915050565b7f4e487b7100000000000000000000000000000000000000000000000000000000600052601160045260246000fd5b7f4e487b7100000000000000000000000000000000000000000000000000000000600052601260045260246000fd5b6000601f19601f8301169050919050565b611ad481611985565b8114611adf57600080fd5b50565b611aeb81611997565b8114611af657600080fd5b50565b611b02816119a3565b8114611b0d57600080fd5b50565b611b19816119cd565b8114611b2457600080fd5b5056fea2646970667358221220c76f329c3e15257d5674eadf5478d3e7aab09ea406c47f5444d8c69779e78d6b64736f6c63430008000033",
  "immutableReferences": {
    "73": [
      {
        "length": 32,
        "start": 1888
      },
      {
        "length": 32,
        "start": 3330
      }
    ],
    "75": [
      {
        "length": 32,
        "start": 2484
      },
      {
        "length": 32,
        "start": 3390
      }
    ],
    "301": [
      {
        "length": 32,
        "start": 1242
      },
      {
        "length": 32,
        "start": 1782
      },
      {
        "length": 32,
        "start": 3224
      },
      {
        "length": 32,
        "start": 3684
      }
    ],
    "303": [
      {
        "length": 32,
        "start": 923
      },
      {
        "length": 32,
        "start": 959
      },
      {
        "length": 32,
        "start": 2749
      },
      {
        "length": 32,
        "start": 2953
      },
      {
        "length": 32,
        "start": 3115
      }
    ]
  },
  "source": "// SPDX-License-Identifier: UNLICENSED\r\npragma solidity >=0.8.0;\r\n\r\nimport './Context.sol';\r\nimport \"@chainlink/contracts/src/v0.8/VRFConsumerBase.sol\";\r\nimport './SafeMath.sol';\r\n\r\ncontract Gambling is Context, VRFConsumerBase {\r\n    \r\n    using SafeMath for uint256;\r\n\r\n    uint immutable public N;        // stores total players allowed in the game\r\n    uint immutable public minStake; // minimum amount in wei that a user needs to stake\r\n    address public owner;\r\n    address public winner;          // stores the winner address after gambling ends\r\n    address[] public playerAddress; // array that stores all the registered addresses\r\n    mapping (address => bool) public playerReg;     // boolean mapping to check whether an address is regosterd or not\r\n    mapping (address => uint256) public playerStake; // it mappes the amount staked by an address\r\n    uint8 public gameStage = 0;     // Game has two stages: 0 - staking is ON, 1 - stacking is completed and winner has been announced\r\n\r\n    bytes32 internal keyHash;\r\n    uint256 internal fee;   // fee to pay the chainlink oracle for getting random no.\r\n    \r\n    // event that will be emitted when winner is announced\r\n    event WinnerRevealed(address);\r\n    \r\n    constructor(address _owner, uint _N, uint _minStake) VRFConsumerBase(\r\n            0xdD3782915140c8f3b190B5D67eAc6dc5760C46E9, // VRF Coordinator\r\n            0xa36085F69e2889c224210F603D836748e7dC0088  // LINK Token\r\n        ) \r\n    {\r\n        owner = _owner;\r\n        N = _N;\r\n        minStake = _minStake;   // value in wei\r\n        keyHash = 0x6c3699283bda56ad74f6b855546325b68d482e983852a7a82979cc4807b641f4;\r\n        fee = 0.1 * 10 ** 18; // 0.1 LINK (Varies by network)\r\n    }\r\n    \r\n    // Users can call this function stake their amount and register in the game\r\n    // It can be called again by the same user for staking more amount\r\n    function stake() public payable {\r\n        require((playerStake[_msgSender()]).add(msg.value) >= minStake, \"Insufficient stake amount\");\r\n        if(playerReg[_msgSender()] == false) {\r\n            require(playerAddress.length < N, \"No more players allowed\");\r\n            playerAddress.push(_msgSender());\r\n            playerReg[_msgSender()] = true;\r\n        }\r\n        (playerStake[_msgSender()]).add(msg.value);\r\n    }\r\n    \r\n    // to get the contract balance in wei\r\n    function getBalance() public view returns(uint256) {\r\n        return address(this).balance;\r\n    }\r\n    \r\n    // Users can call it to get their extra stake amount back. \r\n    // Only minimum stake amount will then be kept by the contract.\r\n    function getRefund() public {\r\n        require(gameStage == 0, \"Game has already ended\");\r\n        require(playerStake[_msgSender()] > minStake, \"Refund not available\");\r\n        payable(_msgSender()).transfer((playerStake[_msgSender()]).sub(minStake));\r\n        playerStake[_msgSender()] = minStake;\r\n    }\r\n\r\n    // Fuction to declare the winner when all the users have registered\r\n    // It will call the chainlink oracle to get the random no.\r\n    function getWinner() public returns(bytes32 requestId) {\r\n        require(gameStage == 0, \"Game has already over\");\r\n        require(playerAddress.length == N, \"Players are yet to stake\");\r\n\r\n        require(LINK.balanceOf(address(this)) >= fee, \"Not enough LINK - fill contract with faucet\");\r\n        return requestRandomness(keyHash, fee);\r\n    }\r\n    \r\n    // Callback function to get the winner and transfer 99% of the stake prize to his/her account address\r\n    function fulfillRandomness(bytes32 requestId, uint256 randomness) internal override {\r\n        winner = playerAddress[randomness.mod(N)];\r\n        payable(winner).transfer((address(this).balance).mul(99).div(100));\r\n        gameStage = 1;                          // game over\r\n        emit WinnerRevealed(winner);\r\n    }\r\n\r\n    // owner can call this function to get 1% of his/her share of the total staked amount\r\n    function getOwnerFund() public {\r\n        require(gameStage == 1, \"Staking is not finished yet\");\r\n        require(_msgSender() == owner, \"Only owner allowed\");\r\n        payable(owner).transfer(address(this).balance);\r\n    }\r\n    \r\n    receive() external payable {}\r\n    \r\n}",
  "sourcePath": "D:\\GamblingGame\\contracts\\Gambling.sol",
  "compiler": {
    "name": "solc",
    "version": "0.8.0+commit.c7dfd78e.Emscripten.clang"
  },
  "schemaVersion": "3.4.3",
  "updatedAt": "2021-09-19T08:26:32.703Z",
  "networkType": "ethereum",
  "devdoc": {
    "kind": "dev",
    "methods": {},
    "version": 1
  },
  "userdoc": {
    "kind": "user",
    "methods": {},
    "version": 1
  }
}